{
  "contractName": "Aggregator",
  "abi": [
    {
      "anonymous": false,
      "inputs": [
        {
          "indexed": false,
          "internalType": "uint256",
          "name": "_param",
          "type": "uint256"
        }
      ],
      "name": "displayParam",
      "type": "event"
    },
    {
      "constant": true,
      "inputs": [],
      "name": "toFloat",
      "outputs": [
        {
          "internalType": "uint32",
          "name": "",
          "type": "uint32"
        }
      ],
      "payable": false,
      "stateMutability": "view",
      "type": "function"
    },
    {
      "constant": false,
      "inputs": [
        {
          "internalType": "uint256[][]",
          "name": "_layer_params",
          "type": "uint256[][]"
        }
      ],
      "name": "store_params",
      "outputs": [
        {
          "internalType": "uint256",
          "name": "",
          "type": "uint256"
        }
      ],
      "payable": false,
      "stateMutability": "nonpayable",
      "type": "function"
    },
    {
      "constant": true,
      "inputs": [],
      "name": "getBalance",
      "outputs": [
        {
          "internalType": "uint256",
          "name": "",
          "type": "uint256"
        }
      ],
      "payable": false,
      "stateMutability": "view",
      "type": "function"
    },
    {
      "constant": false,
      "inputs": [],
      "name": "run_agg",
      "outputs": [
        {
          "internalType": "uint256",
          "name": "",
          "type": "uint256"
        }
      ],
      "payable": false,
      "stateMutability": "nonpayable",
      "type": "function"
    },
    {
      "constant": true,
      "inputs": [],
      "name": "read_params",
      "outputs": [
        {
          "internalType": "uint256[][]",
          "name": "",
          "type": "uint256[][]"
        }
      ],
      "payable": false,
      "stateMutability": "view",
      "type": "function"
    }
  ],
  "bytecode": "0x608060405234801561001057600080fd5b50610a97806100206000396000f3fe608060405234801561001057600080fd5b50600436106100575760003560e01c8063106b14ee1461005c57806312065fe01461008c5780631b72bc75146100aa5780633413bb74146100c8578063e8129416146100e6575b600080fd5b6100766004803603610071919081019061076f565b610104565b60405161008391906108fe565b60405180910390f35b61009461014e565b6040516100a191906108fe565b60405180910390f35b6100b2610157565b6040516100bf9190610919565b60405180910390f35b6100d061015f565b6040516100dd91906108fe565b60405180910390f35b6100ee610265565b6040516100fb91906108dc565b60405180910390f35b60006002829080600181540180825580915050906001820390600052602060002001600090919290919091509080519060200190610143929190610544565b505060019050919050565b6000607b905090565b633b9aca0081565b60006102486002805480602002602001604051908101604052809291908181526020016000905b8282101561023f57838290600052602060002001805480602002602001604051908101604052809291908181526020016000905b8282101561022c5783829060005260206000200180548060200260200160405190810160405280929190818152602001828054801561021857602002820191906000526020600020905b815481526020019060010190808311610204575b5050505050815260200190600101906101ba565b5050505081526020019060010190610186565b50505050610304565b6003908051906020019061025d929190610544565b506001905090565b60606003805480602002602001604051908101604052809291908181526020016000905b828210156102fb578382906000526020600020018054806020026020016040519081016040528092919081815260200182805480156102e757602002820191906000526020600020905b8154815260200190600101908083116102d3575b505050505081526020019060010190610289565b50505050905090565b606060008251905060008360008151811061031b57fe5b602002602001015151905060008460008151811061033557fe5b602002602001015160008151811061034957fe5b602002602001015151905060608260405190808252806020026020018201604052801561038a57816020015b60608152602001906001900390816103755790505b50905060008090505b838110156104e157826040519080825280602002602001820160405280156103ca5781602001602082028038833980820191505090505b508282815181106103d757fe5b602002602001018190525060008090505b838110156104d3576103f86104ee565b60008090505b868110156104555761044889828151811061041557fe5b6020026020010151848151811061042857fe5b6020026020010151838151811061043b57fe5b60200260200101516104ff565b80806001019150506103fe565b506000610460610523565b90508084848151811061046f57fe5b6020026020010151838151811061048257fe5b6020026020010181815250507fd89c87d2d3ba9dfb756b93438355ceeceba32317a2443ef5ca0261d5def45e6b816040516104bd91906108fe565b60405180910390a15080806001019150506103e8565b508080600101915050610393565b5080945050505050919050565b600060018190555060008081905550565b80600080828254019250508190555060016000815480929190600101919050555050565b6000600154633b9aca0063ffffffff16600054028161053e57fe5b04905090565b828054828255906000526020600020908101928215610593579160200282015b828111156105925782518290805190602001906105829291906105a4565b5091602001919060010190610564565b5b5090506105a091906105f1565b5090565b8280548282559060005260206000209081019282156105e0579160200282015b828111156105df5782518255916020019190600101906105c4565b5b5090506105ed919061061d565b5090565b61061a91905b80821115610616576000818161060d9190610642565b506001016105f7565b5090565b90565b61063f91905b8082111561063b576000816000905550600101610623565b5090565b90565b5080546000825590600052602060002090810190610660919061061d565b50565b600082601f83011261067457600080fd5b813561068761068282610961565b610934565b9150818183526020840193506020810190508360005b838110156106cd57813586016106b388826106d7565b84526020840193506020830192505060018101905061069d565b5050505092915050565b600082601f8301126106e857600080fd5b81356106fb6106f682610989565b610934565b9150818183526020840193506020810190508385602084028201111561072057600080fd5b60005b838110156107505781610736888261075a565b845260208401935060208301925050600181019050610723565b5050505092915050565b60008135905061076981610a3d565b92915050565b60006020828403121561078157600080fd5b600082013567ffffffffffffffff81111561079b57600080fd5b6107a784828501610663565b91505092915050565b60006107bc8383610851565b905092915050565b60006107d083836108af565b60208301905092915050565b60006107e7826109d1565b6107f18185610a01565b935083602082028501610803856109b1565b8060005b8581101561083f578484038952815161082085826107b0565b945061082b836109e7565b925060208a01995050600181019050610807565b50829750879550505050505092915050565b600061085c826109dc565b6108668185610a12565b9350610871836109c1565b8060005b838110156108a257815161088988826107c4565b9750610894836109f4565b925050600181019050610875565b5085935050505092915050565b6108b881610a23565b82525050565b6108c781610a23565b82525050565b6108d681610a2d565b82525050565b600060208201905081810360008301526108f681846107dc565b905092915050565b600060208201905061091360008301846108be565b92915050565b600060208201905061092e60008301846108cd565b92915050565b6000604051905081810181811067ffffffffffffffff8211171561095757600080fd5b8060405250919050565b600067ffffffffffffffff82111561097857600080fd5b602082029050602081019050919050565b600067ffffffffffffffff8211156109a057600080fd5b602082029050602081019050919050565b6000819050602082019050919050565b6000819050602082019050919050565b600081519050919050565b600081519050919050565b6000602082019050919050565b6000602082019050919050565b600082825260208201905092915050565b600082825260208201905092915050565b6000819050919050565b600063ffffffff82169050919050565b610a4681610a23565b8114610a5157600080fd5b5056fea365627a7a72315820741c840792b5589a48bd641d5b4929e6c1e5056a789a8d47c62a364b07ee3c236c6578706572696d656e74616cf564736f6c63430005100040",
  "source": "pragma solidity ^0.5.16;\npragma experimental ABIEncoderV2;\n\n\ncontract Aggregator {\n    uint256 total;\n    uint256 counter;\n    uint256[][][] edges_params; //data structure to hold the edges' parameters\n    uint256[][] server_params; // data structure to hold the global parameters\n    uint32 public constant toFloat = 1E9;\n\n    /* Input: an array of edges params for one layer\n   Output: the new layer params for the server which is the aggregation of the edges' params\n   Remark: The output is to be broadcasted back to the edges after all layers have been processed */\n\n    function averageLayer(uint256[][][] memory _layer_params)\n        internal\n        returns (uint256[][] memory)\n    {\n        uint256 n_clients = _layer_params.length;\n        uint256 n_neurons = _layer_params[0].length;\n        uint256 n_connections = _layer_params[0][0].length;\n        uint256[][] memory newLayer = new uint256[][](n_neurons);\n\n        for (uint256 i = 0; i < n_neurons; i++) {\n            newLayer[i] = new uint256[](n_connections);\n\n            for (uint256 j = 0; j < n_connections; j++) {\n                resetCounters();\n\n                for (uint256 k = 0; k < n_clients; k++) {\n                    calcAverage(_layer_params[k][i][j]);\n                }\n                uint256 temp_average = getAverage();\n                newLayer[i][j] = temp_average;\n                emit displayParam(temp_average);\n            }\n        }\n        return newLayer;\n    }\n\n    /* Input: an edge parameters' array (for a given layer)\n       Output: parameters' array aggregated to the global parameters array\n       Remark: helper function to prepare for the aggregation */\n\n    function store_params(uint256[][] memory _layer_params)\n        public\n        returns (uint256)\n    {\n        // TODO: require that the address from which the parameter is read has not yet\n        // called the function  in this round\n        edges_params.push(_layer_params);\n        return 1;\n    }\n\n    function getBalance() public view returns (uint256) {\n        return 123;\n    }\n\n    function run_agg() public returns (uint256) {\n        server_params = averageLayer(edges_params);\n        return 1;\n    }\n\n    function read_params() public view returns (uint256[][] memory) {\n        return server_params;\n    }\n\n    function calcAverage(uint256 _newValue) internal {\n        total += _newValue;\n        counter++;\n    }\n\n    function getAverage() internal view returns (uint256) {\n        return ((total * toFloat) / counter);\n    }\n\n    function resetCounters() internal {\n        counter = 0;\n        total = 0;\n    }\n\n    // Event for debugging purposes\n\n    event displayParam(uint256 _param);\n}\n",
  "sourcePath": "/Users/omar_rifai/workspace/truffle/contracts/Aggregator.sol",
  "compiler": {
    "name": "solc",
    "version": "0.5.16+commit.9c3226ce.Emscripten.clang"
  },
  "schemaVersion": "3.0.23",
  "updatedAt": "2020-04-14T07:28:27.162Z",
  "networkType": "ethereum",
  "devdoc": {
    "methods": {}
  },
  "userdoc": {
    "methods": {}
  }
}