{
  "contractName": "Federation",
  "abi": [
    {
      "anonymous": false,
      "inputs": [
        {
          "indexed": false,
          "internalType": "uint256",
          "name": "_param",
          "type": "uint256"
        }
      ],
      "name": "displayParam",
      "type": "event"
    },
    {
      "constant": true,
      "inputs": [
        {
          "internalType": "address",
          "name": "",
          "type": "address"
        }
      ],
      "name": "edges_mapping",
      "outputs": [
        {
          "internalType": "bool",
          "name": "",
          "type": "bool"
        }
      ],
      "payable": false,
      "stateMutability": "view",
      "type": "function"
    },
    {
      "constant": true,
      "inputs": [
        {
          "internalType": "address",
          "name": "",
          "type": "address"
        }
      ],
      "name": "participated",
      "outputs": [
        {
          "internalType": "bool",
          "name": "",
          "type": "bool"
        }
      ],
      "payable": false,
      "stateMutability": "view",
      "type": "function"
    },
    {
      "constant": true,
      "inputs": [],
      "name": "toFloat",
      "outputs": [
        {
          "internalType": "uint32",
          "name": "",
          "type": "uint32"
        }
      ],
      "payable": false,
      "stateMutability": "view",
      "type": "function"
    },
    {
      "constant": false,
      "inputs": [
        {
          "internalType": "uint256[][][]",
          "name": "_layer_params",
          "type": "uint256[][][]"
        }
      ],
      "name": "store_params",
      "outputs": [
        {
          "internalType": "uint256",
          "name": "",
          "type": "uint256"
        }
      ],
      "payable": false,
      "stateMutability": "nonpayable",
      "type": "function"
    },
    {
      "constant": false,
      "inputs": [],
      "name": "run_agg",
      "outputs": [
        {
          "internalType": "uint256[][][]",
          "name": "",
          "type": "uint256[][][]"
        }
      ],
      "payable": false,
      "stateMutability": "nonpayable",
      "type": "function"
    },
    {
      "constant": true,
      "inputs": [],
      "name": "read_edges_params",
      "outputs": [
        {
          "internalType": "uint256[][][][]",
          "name": "",
          "type": "uint256[][][][]"
        }
      ],
      "payable": false,
      "stateMutability": "view",
      "type": "function"
    },
    {
      "constant": true,
      "inputs": [],
      "name": "read_params",
      "outputs": [
        {
          "internalType": "uint256[][][]",
          "name": "",
          "type": "uint256[][][]"
        }
      ],
      "payable": false,
      "stateMutability": "view",
      "type": "function"
    },
    {
      "constant": true,
      "inputs": [],
      "name": "displayAccount",
      "outputs": [
        {
          "internalType": "address",
          "name": "",
          "type": "address"
        }
      ],
      "payable": false,
      "stateMutability": "view",
      "type": "function"
    }
  ],
  "bytecode": "0x608060405234801561001057600080fd5b5061166e806100206000396000f3fe608060405234801561001057600080fd5b50600436106100885760003560e01c8063813c16dc1161005b578063813c16dc14610117578063b3bd870a14610135578063b994430914610165578063e81294161461019557610088565b80631b72bc751461008d5780633413bb74146100ab5780634a5c0310146100c95780635172adb8146100e7575b600080fd5b6100956101b3565b6040516100a291906113b7565b60405180910390f35b6100b36101bb565b6040516100c0919061133f565b60405180910390f35b6100d16102d1565b6040516100de919061131d565b60405180910390f35b61010160048036036100fc9190810190610f61565b6103fe565b60405161010e9190611361565b60405180910390f35b61011f61041e565b60405161012c9190611302565b60405180910390f35b61014f600480360361014a9190810190610f61565b610426565b60405161015c9190611361565b60405180910390f35b61017f600480360361017a9190810190610f8a565b610446565b60405161018c919061139c565b60405180910390f35b61019d610692565b6040516101aa919061133f565b60405180910390f35b633b9aca0081565b60606101c5610778565b600390805190602001906101da929190610b92565b506101e3610a68565b506101ec610a83565b506003805480602002602001604051908101604052809291908181526020016000905b828210156102c857838290600052602060002001805480602002602001604051908101604052809291908181526020016000905b828210156102b5578382906000526020600020018054806020026020016040519081016040528092919081815260200182805480156102a157602002820191906000526020600020905b81548152602001906001019080831161028d575b505050505081526020019060010190610243565b505050508152602001906001019061020f565b50505050905090565b60606002805480602002602001604051908101604052809291908181526020016000905b828210156103f557838290600052602060002001805480602002602001604051908101604052809291908181526020016000905b828210156103e257838290600052602060002001805480602002602001604051908101604052809291908181526020016000905b828210156103cf578382906000526020600020018054806020026020016040519081016040528092919081815260200182805480156103bb57602002820191906000526020600020905b8154815260200190600101908083116103a7575b50505050508152602001906001019061035d565b5050505081526020019060010190610329565b50505050815260200190600101906102f5565b50505050905090565b60066020528060005260406000206000915054906101000a900460ff1681565b600033905090565b60056020528060005260406000206000915054906101000a900460ff1681565b6000801515600560003373ffffffffffffffffffffffffffffffffffffffff1673ffffffffffffffffffffffffffffffffffffffff16815260200190815260200160002060009054906101000a900460ff161515146104da576040517f08c379a00000000000000000000000000000000000000000000000000000000081526004016104d19061137c565b60405180910390fd5b60001515600660003373ffffffffffffffffffffffffffffffffffffffff1673ffffffffffffffffffffffffffffffffffffffff16815260200190815260200160002060009054906101000a900460ff16151514156105f25760043390806001815401808255809150509060018203906000526020600020016000909192909190916101000a81548173ffffffffffffffffffffffffffffffffffffffff021916908373ffffffffffffffffffffffffffffffffffffffff160217905550506001600660003373ffffffffffffffffffffffffffffffffffffffff1673ffffffffffffffffffffffffffffffffffffffff16815260200190815260200160002060006101000a81548160ff0219169083151502179055505b600282908060018154018082558091505090600182039060005260206000200160009091929091909150908051906020019061062f929190610b92565b50506001600560003373ffffffffffffffffffffffffffffffffffffffff1673ffffffffffffffffffffffffffffffffffffffff16815260200190815260200160002060006101000a81548160ff02191690831515021790555060019050919050565b60606003805480602002602001604051908101604052809291908181526020016000905b8282101561076f57838290600052602060002001805480602002602001604051908101604052809291908181526020016000905b8282101561075c5783829060005260206000200180548060200260200160405190810160405280929190818152602001828054801561074857602002820191906000526020600020905b815481526020019060010190808311610734575b5050505050815260200190600101906106ea565b50505050815260200190600101906106b6565b50505050905090565b6060600060028054905090506000600260008154811061079457fe5b906000526020600020018054905090506060816040519080825280602002602001820160405280156107da57816020015b60608152602001906001900390816107c55790505b50905060008090505b82811015610a5e57600060026000815481106107fb57fe5b90600052602060002001828154811061081057fe5b906000526020600020018054905090506000600260008154811061083057fe5b90600052602060002001838154811061084557fe5b9060005260206000200160008154811061085b57fe5b906000526020600020018054905090508160405190808252806020026020018201604052801561089f57816020015b606081526020019060019003908161088a5790505b508484815181106108ac57fe5b602002602001018190525060008090505b82811015610a4e57816040519080825280602002602001820160405280156108f45781602001602082028038833980820191505090505b5085858151811061090157fe5b6020026020010151828151811061091457fe5b602002602001018190525060008090505b82811015610a4057610935610b3c565b60008090505b888110156109af576109a26002828154811061095357fe5b90600052602060002001878154811061096857fe5b90600052602060002001848154811061097d57fe5b90600052602060002001838154811061099257fe5b9060005260206000200154610b4d565b808060010191505061093b565b5060006109ba610b71565b9050808787815181106109c957fe5b602002602001015184815181106109dc57fe5b602002602001015183815181106109ef57fe5b6020026020010181815250507fd89c87d2d3ba9dfb756b93438355ceeceba32317a2443ef5ca0261d5def45e6b81604051610a2a919061139c565b60405180910390a1508080600101915050610925565b5080806001019150506108bd565b50505080806001019150506107e3565b5080935050505090565b600060026000610a789190610bf2565b600280549050905090565b600080600090505b600480549050811015610b345760006005600060048481548110610aab57fe5b9060005260206000200160009054906101000a900473ffffffffffffffffffffffffffffffffffffffff1673ffffffffffffffffffffffffffffffffffffffff1673ffffffffffffffffffffffffffffffffffffffff16815260200190815260200160002060006101000a81548160ff0219169083151502179055508080600101915050610a8b565b506001905090565b600060018190555060008081905550565b80600080828254019250508190555060016000815480929190600101919050555050565b6000600154633b9aca0063ffffffff166000540281610b8c57fe5b04905090565b828054828255906000526020600020908101928215610be1579160200282015b82811115610be0578251829080519060200190610bd0929190610c13565b5091602001919060010190610bb2565b5b509050610bee9190610c73565b5090565b5080546000825590600052602060002090810190610c109190610c9f565b50565b828054828255906000526020600020908101928215610c62579160200282015b82811115610c61578251829080519060200190610c51929190610ccb565b5091602001919060010190610c33565b5b509050610c6f9190610d18565b5090565b610c9c91905b80821115610c985760008181610c8f9190610d44565b50600101610c79565b5090565b90565b610cc891905b80821115610cc45760008181610cbb9190610d65565b50600101610ca5565b5090565b90565b828054828255906000526020600020908101928215610d07579160200282015b82811115610d06578251825591602001919060010190610ceb565b5b509050610d149190610d86565b5090565b610d4191905b80821115610d3d5760008181610d349190610dab565b50600101610d1e565b5090565b90565b5080546000825590600052602060002090810190610d629190610d18565b50565b5080546000825590600052602060002090810190610d839190610c73565b50565b610da891905b80821115610da4576000816000905550600101610d8c565b5090565b90565b5080546000825590600052602060002090810190610dc99190610d86565b50565b600081359050610ddb816115fd565b92915050565b600082601f830112610df257600080fd5b8135610e05610e00826113ff565b6113d2565b9150818183526020840193506020810190508360005b83811015610e4b5781358601610e318882610e55565b845260208401935060208301925050600181019050610e1b565b5050505092915050565b600082601f830112610e6657600080fd5b8135610e79610e7482611427565b6113d2565b9150818183526020840193506020810190508360005b83811015610ebf5781358601610ea58882610ec9565b845260208401935060208301925050600181019050610e8f565b5050505092915050565b600082601f830112610eda57600080fd5b8135610eed610ee88261144f565b6113d2565b91508181835260208401935060208101905083856020840282011115610f1257600080fd5b60005b83811015610f425781610f288882610f4c565b845260208401935060208301925050600181019050610f15565b5050505092915050565b600081359050610f5b81611614565b92915050565b600060208284031215610f7357600080fd5b6000610f8184828501610dcc565b91505092915050565b600060208284031215610f9c57600080fd5b600082013567ffffffffffffffff811115610fb657600080fd5b610fc284828501610de1565b91505092915050565b6000610fd78383611118565b905092915050565b6000610feb838361118d565b905092915050565b6000610fff8383611202565b905092915050565b600061101383836112d5565b60208301905092915050565b611028816115a5565b82525050565b6000611039826114c7565b611043818561153f565b93508360208202850161105585611477565b8060005b8581101561109157848403895281516110728582610fcb565b945061107d836114fe565b925060208a01995050600181019050611059565b50829750879550505050505092915050565b60006110ae826114dd565b6110b88185611561565b9350836020820285016110ca85611497565b8060005b8581101561110657848403895281516110e78582610fdf565b94506110f283611518565b925060208a019950506001810190506110ce565b50829750879550505050505092915050565b6000611123826114d2565b61112d8185611550565b93508360208202850161113f85611487565b8060005b8581101561117b578484038952815161115c8582610fdf565b94506111678361150b565b925060208a01995050600181019050611143565b50829750879550505050505092915050565b6000611198826114e8565b6111a28185611572565b9350836020820285016111b4856114a7565b8060005b858110156111f057848403895281516111d18582610ff3565b94506111dc83611525565b925060208a019950506001810190506111b8565b50829750879550505050505092915050565b600061120d826114f3565b6112178185611583565b9350611222836114b7565b8060005b8381101561125357815161123a8882611007565b975061124583611532565b925050600181019050611226565b5085935050505092915050565b611269816115b7565b82525050565b600061127c602183611594565b91507f53656e64657220616c72656164792073746f72656420706172616d657465727360008301527f2e000000000000000000000000000000000000000000000000000000000000006020830152604082019050919050565b6112de816115e3565b82525050565b6112ed816115e3565b82525050565b6112fc816115ed565b82525050565b6000602082019050611317600083018461101f565b92915050565b60006020820190508181036000830152611337818461102e565b905092915050565b6000602082019050818103600083015261135981846110a3565b905092915050565b60006020820190506113766000830184611260565b92915050565b600060208201905081810360008301526113958161126f565b9050919050565b60006020820190506113b160008301846112e4565b92915050565b60006020820190506113cc60008301846112f3565b92915050565b6000604051905081810181811067ffffffffffffffff821117156113f557600080fd5b8060405250919050565b600067ffffffffffffffff82111561141657600080fd5b602082029050602081019050919050565b600067ffffffffffffffff82111561143e57600080fd5b602082029050602081019050919050565b600067ffffffffffffffff82111561146657600080fd5b602082029050602081019050919050565b6000819050602082019050919050565b6000819050602082019050919050565b6000819050602082019050919050565b6000819050602082019050919050565b6000819050602082019050919050565b600081519050919050565b600081519050919050565b600081519050919050565b600081519050919050565b600081519050919050565b6000602082019050919050565b6000602082019050919050565b6000602082019050919050565b6000602082019050919050565b6000602082019050919050565b600082825260208201905092915050565b600082825260208201905092915050565b600082825260208201905092915050565b600082825260208201905092915050565b600082825260208201905092915050565b600082825260208201905092915050565b60006115b0826115c3565b9050919050565b60008115159050919050565b600073ffffffffffffffffffffffffffffffffffffffff82169050919050565b6000819050919050565b600063ffffffff82169050919050565b611606816115a5565b811461161157600080fd5b50565b61161d816115e3565b811461162857600080fd5b5056fea365627a7a723158208674a43b2ae63a5a1873677fb9d7679ba81eef09f7840bc8c1c7f4a41a406baa6c6578706572696d656e74616cf564736f6c63430005100040",
  "source": "pragma solidity >=0.5.16;\npragma experimental ABIEncoderV2;\n\n\ncontract Federation {\n    uint256 total;\n    uint256 counter;\n    uint256[][][][] edges_params; //data structure to hold the edges' parameters\n    uint256[][][] server_params; // data structure to hold the global parameters\n    uint32 public constant toFloat = 1E9;\n    address[] edges;\n\n    mapping(address => bool) public participated;\n    mapping(address => bool) public edges_mapping;\n\n    /* Input: an array of edges params for one layer\n   Output: the new layer params for the server which is the aggregation of the edges' params\n   Remark: The output is to be broadcasted back to the edges after all layers have been processed */\n\n    function averageLayer() internal returns (uint256[][][] memory) {\n        uint256 n_clients = edges_params.length;\n        uint256 n_layers = edges_params[0].length;\n        uint256[][][] memory newParams = new uint256[][][](n_layers);\n\n        for (uint256 i = 0; i < n_layers; i++) {\n            uint256 n_neurons = edges_params[0][i].length;\n            uint256 n_connections = edges_params[0][i][0].length;\n\n            newParams[i] = new uint256[][](n_neurons);\n\n            for (uint256 j = 0; j < n_neurons; j++) {\n                newParams[i][j] = new uint256[](n_connections);\n\n                for (uint256 k = 0; k < n_connections; k++) {\n                    resetCounters();\n\n                    for (uint256 z = 0; z < n_clients; z++) {\n                        calcAverage(edges_params[z][i][j][k]);\n                    }\n\n                    uint256 temp_average = getAverage();\n                    newParams[i][j][k] = temp_average;\n                    emit displayParam(temp_average);\n                }\n            }\n        }\n        return newParams;\n    }\n\n    /* Input: an edge parameters' array (for a given layer)\n       Output: parameters' array aggregated to the global parameters array\n       Remark: helper function to prepare for the aggregation */\n\n    function store_params(uint256[][][] memory _layer_params)\n        public\n        returns (uint256)\n    {\n        require(\n            participated[msg.sender] == false,\n            \"Sender already stored parameters.\"\n        );\n\n        if (edges_mapping[msg.sender] == false) {\n            edges.push(msg.sender);\n            edges_mapping[msg.sender] = true;\n        }\n\n        edges_params.push(_layer_params);\n        participated[msg.sender] = true;\n\n        return 1;\n    }\n\n    function run_agg() public returns (uint256[][][] memory) {\n        server_params = averageLayer();\n        clearEdgesArray();\n        resetAccounts();\n        return server_params;\n    }\n\n    function calcAverage(uint256 _newValue) internal {\n        total += _newValue;\n        counter++;\n    }\n\n    function getAverage() internal view returns (uint256) {\n        return ((total * toFloat) / counter);\n    }\n\n    function resetCounters() internal {\n        counter = 0;\n        total = 0;\n    }\n\n    function clearEdgesArray() internal returns (uint256) {\n        //for (uint i = 0; i <= edges_params.length; i++) {\n        //  edges_params.pop();\n        //}\n        delete edges_params;\n        return edges_params.length;\n    }\n\n    function resetAccounts() internal returns (bool) {\n        for (uint256 i = 0; i < edges.length; i++) {\n            participated[edges[i]] = false;\n        }\n        return true;\n    }\n\n    function read_edges_params() public view returns (uint256[][][][] memory) {\n        return edges_params;\n    }\n\n    function read_params() public view returns (uint256[][][] memory) {\n        return server_params;\n    }\n\n    // Event for debugging purposes\n\n    event displayParam(uint256 _param);\n\n    function displayAccount() public view returns (address) {\n        return msg.sender;\n    }\n}\n",
  "sourcePath": "/Users/omar_rifai/workspace/truffle/contracts/Federation.sol",
  "compiler": {
    "name": "solc",
    "version": "0.5.16+commit.9c3226ce.Emscripten.clang"
  },
  "schemaVersion": "3.0.23",
  "updatedAt": "2020-04-22T09:40:00.277Z",
  "networkType": "ethereum",
  "devdoc": {
    "methods": {}
  },
  "userdoc": {
    "methods": {}
  }
}