{
  "contractName": "Federation",
  "abi": [
    {
      "anonymous": false,
      "inputs": [
        {
          "indexed": false,
          "internalType": "int256",
          "name": "_param",
          "type": "int256"
        }
      ],
      "name": "displayParam",
      "type": "event"
    },
    {
      "constant": true,
      "inputs": [
        {
          "internalType": "address",
          "name": "",
          "type": "address"
        }
      ],
      "name": "edges_mapping",
      "outputs": [
        {
          "internalType": "bool",
          "name": "",
          "type": "bool"
        }
      ],
      "payable": false,
      "stateMutability": "view",
      "type": "function"
    },
    {
      "constant": true,
      "inputs": [
        {
          "internalType": "address",
          "name": "",
          "type": "address"
        }
      ],
      "name": "participated",
      "outputs": [
        {
          "internalType": "bool",
          "name": "",
          "type": "bool"
        }
      ],
      "payable": false,
      "stateMutability": "view",
      "type": "function"
    },
    {
      "constant": true,
      "inputs": [],
      "name": "toFloat",
      "outputs": [
        {
          "internalType": "int32",
          "name": "",
          "type": "int32"
        }
      ],
      "payable": false,
      "stateMutability": "view",
      "type": "function"
    },
    {
      "constant": false,
      "inputs": [
        {
          "internalType": "int256[][][]",
          "name": "_layer_params",
          "type": "int256[][][]"
        }
      ],
      "name": "store_params",
      "outputs": [
        {
          "internalType": "int256",
          "name": "",
          "type": "int256"
        }
      ],
      "payable": false,
      "stateMutability": "nonpayable",
      "type": "function"
    },
    {
      "constant": false,
      "inputs": [],
      "name": "run_agg",
      "outputs": [
        {
          "internalType": "int256[][][]",
          "name": "",
          "type": "int256[][][]"
        }
      ],
      "payable": false,
      "stateMutability": "nonpayable",
      "type": "function"
    },
    {
      "constant": false,
      "inputs": [],
      "name": "resetState",
      "outputs": [
        {
          "internalType": "bool",
          "name": "",
          "type": "bool"
        }
      ],
      "payable": false,
      "stateMutability": "nonpayable",
      "type": "function"
    },
    {
      "constant": true,
      "inputs": [],
      "name": "read_edges_params",
      "outputs": [
        {
          "internalType": "int256[][][][]",
          "name": "",
          "type": "int256[][][][]"
        }
      ],
      "payable": false,
      "stateMutability": "view",
      "type": "function"
    },
    {
      "constant": true,
      "inputs": [],
      "name": "read_params",
      "outputs": [
        {
          "internalType": "int256[][][]",
          "name": "",
          "type": "int256[][][]"
        }
      ],
      "payable": false,
      "stateMutability": "view",
      "type": "function"
    },
    {
      "constant": true,
      "inputs": [],
      "name": "displayAccount",
      "outputs": [
        {
          "internalType": "address",
          "name": "",
          "type": "address"
        }
      ],
      "payable": false,
      "stateMutability": "view",
      "type": "function"
    }
  ],
  "bytecode": "0x608060405234801561001057600080fd5b506116a3806100206000396000f3fe608060405234801561001057600080fd5b50600436106100935760003560e01c8063813c16dc11610066578063813c16dc14610122578063b3bd870a14610140578063d4223fbe14610170578063e8129416146101a0578063f9e19fa5146101be57610093565b80631b72bc75146100985780633413bb74146100b65780634a5c0310146100d45780635172adb8146100f2575b600080fd5b6100a06101dc565b6040516100ad91906113cf565b60405180910390f35b6100be6101e4565b6040516100cb9190611377565b60405180910390f35b6100dc6102fa565b6040516100e99190611355565b60405180910390f35b61010c60048036036101079190810190610f99565b610427565b6040516101199190611399565b60405180910390f35b61012a610447565b604051610137919061133a565b60405180910390f35b61015a60048036036101559190810190610f99565b61044f565b6040516101679190611399565b60405180910390f35b61018a60048036036101859190810190610fc2565b61046f565b60405161019791906113b4565b60405180910390f35b6101a86106bb565b6040516101b59190611377565b60405180910390f35b6101c66107a1565b6040516101d39190611399565b60405180910390f35b633b9aca0081565b60606101ee6107bc565b60039080519060200190610203929190610bca565b5061020c610aac565b50610215610ac7565b506003805480602002602001604051908101604052809291908181526020016000905b828210156102f157838290600052602060002001805480602002602001604051908101604052809291908181526020016000905b828210156102de578382906000526020600020018054806020026020016040519081016040528092919081815260200182805480156102ca57602002820191906000526020600020905b8154815260200190600101908083116102b6575b50505050508152602001906001019061026c565b5050505081526020019060010190610238565b50505050905090565b60606002805480602002602001604051908101604052809291908181526020016000905b8282101561041e57838290600052602060002001805480602002602001604051908101604052809291908181526020016000905b8282101561040b57838290600052602060002001805480602002602001604051908101604052809291908181526020016000905b828210156103f8578382906000526020600020018054806020026020016040519081016040528092919081815260200182805480156103e457602002820191906000526020600020905b8154815260200190600101908083116103d0575b505050505081526020019060010190610386565b5050505081526020019060010190610352565b505050508152602001906001019061031e565b50505050905090565b60066020528060005260406000206000915054906101000a900460ff1681565b600033905090565b60056020528060005260406000206000915054906101000a900460ff1681565b6000801515600560003373ffffffffffffffffffffffffffffffffffffffff1673ffffffffffffffffffffffffffffffffffffffff16815260200190815260200160002060009054906101000a900460ff16151514610503576040517f08c379a00000000000000000000000000000000000000000000000000000000081526004016104fa906113ea565b60405180910390fd5b60001515600660003373ffffffffffffffffffffffffffffffffffffffff1673ffffffffffffffffffffffffffffffffffffffff16815260200190815260200160002060009054906101000a900460ff161515141561061b5760043390806001815401808255809150509060018203906000526020600020016000909192909190916101000a81548173ffffffffffffffffffffffffffffffffffffffff021916908373ffffffffffffffffffffffffffffffffffffffff160217905550506001600660003373ffffffffffffffffffffffffffffffffffffffff1673ffffffffffffffffffffffffffffffffffffffff16815260200190815260200160002060006101000a81548160ff0219169083151502179055505b6002829080600181540180825580915050906001820390600052602060002001600090919290919091509080519060200190610658929190610bca565b50506001600560003373ffffffffffffffffffffffffffffffffffffffff1673ffffffffffffffffffffffffffffffffffffffff16815260200190815260200160002060006101000a81548160ff02191690831515021790555060019050919050565b60606003805480602002602001604051908101604052809291908181526020016000905b8282101561079857838290600052602060002001805480602002602001604051908101604052809291908181526020016000905b828210156107855783829060005260206000200180548060200260200160405190810160405280929190818152602001828054801561077157602002820191906000526020600020905b81548152602001906001019080831161075d575b505050505081526020019060010190610713565b50505050815260200190600101906106df565b50505050905090565b60006107ab610aac565b506107b4610ac7565b506001905090565b606060006002805490509050600060026000815481106107d857fe5b9060005260206000200180549050905060608160405190808252806020026020018201604052801561081e57816020015b60608152602001906001900390816108095790505b50905060008090505b82811015610aa2576000600260008154811061083f57fe5b90600052602060002001828154811061085457fe5b906000526020600020018054905090506000600260008154811061087457fe5b90600052602060002001838154811061088957fe5b9060005260206000200160008154811061089f57fe5b90600052602060002001805490509050816040519080825280602002602001820160405280156108e357816020015b60608152602001906001900390816108ce5790505b508484815181106108f057fe5b602002602001018190525060008090505b82811015610a9257816040519080825280602002602001820160405280156109385781602001602082028038833980820191505090505b5085858151811061094557fe5b6020026020010151828151811061095857fe5b602002602001018190525060008090505b82811015610a8457610979610b80565b60008090505b888110156109f3576109e66002828154811061099757fe5b9060005260206000200187815481106109ac57fe5b9060005260206000200184815481106109c157fe5b9060005260206000200183815481106109d657fe5b9060005260206000200154610b91565b808060010191505061097f565b5060006109fe610bb5565b905080878781518110610a0d57fe5b60200260200101518481518110610a2057fe5b60200260200101518381518110610a3357fe5b6020026020010181815250507ffbf019d652fe03a2e20ee2826048fddeb738ab2cd27a73bb568e235e7d75d34681604051610a6e91906113b4565b60405180910390a1508080600101915050610969565b508080600101915050610901565b5050508080600101915050610827565b5080935050505090565b600060026000610abc9190610c2a565b600280549050905090565b600080600090505b600480549050811015610b785760006005600060048481548110610aef57fe5b9060005260206000200160009054906101000a900473ffffffffffffffffffffffffffffffffffffffff1673ffffffffffffffffffffffffffffffffffffffff1673ffffffffffffffffffffffffffffffffffffffff16815260200190815260200160002060006101000a81548160ff0219169083151502179055508080600101915050610acf565b506001905090565b600060018190555060008081905550565b80600080828254019250508190555060016000815480929190600101919050555050565b600060015460005481610bc457fe5b05905090565b828054828255906000526020600020908101928215610c19579160200282015b82811115610c18578251829080519060200190610c08929190610c4b565b5091602001919060010190610bea565b5b509050610c269190610cab565b5090565b5080546000825590600052602060002090810190610c489190610cd7565b50565b828054828255906000526020600020908101928215610c9a579160200282015b82811115610c99578251829080519060200190610c89929190610d03565b5091602001919060010190610c6b565b5b509050610ca79190610d50565b5090565b610cd491905b80821115610cd05760008181610cc79190610d7c565b50600101610cb1565b5090565b90565b610d0091905b80821115610cfc5760008181610cf39190610d9d565b50600101610cdd565b5090565b90565b828054828255906000526020600020908101928215610d3f579160200282015b82811115610d3e578251825591602001919060010190610d23565b5b509050610d4c9190610dbe565b5090565b610d7991905b80821115610d755760008181610d6c9190610de3565b50600101610d56565b5090565b90565b5080546000825590600052602060002090810190610d9a9190610d50565b50565b5080546000825590600052602060002090810190610dbb9190610cab565b50565b610de091905b80821115610ddc576000816000905550600101610dc4565b5090565b90565b5080546000825590600052602060002090810190610e019190610dbe565b50565b600081359050610e1381611632565b92915050565b600082601f830112610e2a57600080fd5b8135610e3d610e3882611437565b61140a565b9150818183526020840193506020810190508360005b83811015610e835781358601610e698882610e8d565b845260208401935060208301925050600181019050610e53565b5050505092915050565b600082601f830112610e9e57600080fd5b8135610eb1610eac8261145f565b61140a565b9150818183526020840193506020810190508360005b83811015610ef75781358601610edd8882610f01565b845260208401935060208301925050600181019050610ec7565b5050505092915050565b600082601f830112610f1257600080fd5b8135610f25610f2082611487565b61140a565b91508181835260208401935060208101905083856020840282011115610f4a57600080fd5b60005b83811015610f7a5781610f608882610f84565b845260208401935060208301925050600181019050610f4d565b5050505092915050565b600081359050610f9381611649565b92915050565b600060208284031215610fab57600080fd5b6000610fb984828501610e04565b91505092915050565b600060208284031215610fd457600080fd5b600082013567ffffffffffffffff811115610fee57600080fd5b610ffa84828501610e19565b91505092915050565b600061100f8383611150565b905092915050565b600061102383836111c5565b905092915050565b6000611037838361123a565b905092915050565b600061104b83836112a7565b60208301905092915050565b611060816115dd565b82525050565b6000611071826114ff565b61107b8185611577565b93508360208202850161108d856114af565b8060005b858110156110c957848403895281516110aa8582611003565b94506110b583611536565b925060208a01995050600181019050611091565b50829750879550505050505092915050565b60006110e682611515565b6110f08185611599565b935083602082028501611102856114cf565b8060005b8581101561113e578484038952815161111f8582611017565b945061112a83611550565b925060208a01995050600181019050611106565b50829750879550505050505092915050565b600061115b8261150a565b6111658185611588565b935083602082028501611177856114bf565b8060005b858110156111b357848403895281516111948582611017565b945061119f83611543565b925060208a0199505060018101905061117b565b50829750879550505050505092915050565b60006111d082611520565b6111da81856115aa565b9350836020820285016111ec856114df565b8060005b858110156112285784840389528151611209858261102b565b94506112148361155d565b925060208a019950506001810190506111f0565b50829750879550505050505092915050565b60006112458261152b565b61124f81856115bb565b935061125a836114ef565b8060005b8381101561128b578151611272888261103f565b975061127d8361156a565b92505060018101905061125e565b5085935050505092915050565b6112a1816115ef565b82525050565b6112b0816115fb565b82525050565b6112bf816115fb565b82525050565b6112ce81611605565b82525050565b60006112e16021836115cc565b91507f53656e64657220616c72656164792073746f72656420706172616d657465727360008301527f2e000000000000000000000000000000000000000000000000000000000000006020830152604082019050919050565b600060208201905061134f6000830184611057565b92915050565b6000602082019050818103600083015261136f8184611066565b905092915050565b6000602082019050818103600083015261139181846110db565b905092915050565b60006020820190506113ae6000830184611298565b92915050565b60006020820190506113c960008301846112b6565b92915050565b60006020820190506113e460008301846112c5565b92915050565b60006020820190508181036000830152611403816112d4565b9050919050565b6000604051905081810181811067ffffffffffffffff8211171561142d57600080fd5b8060405250919050565b600067ffffffffffffffff82111561144e57600080fd5b602082029050602081019050919050565b600067ffffffffffffffff82111561147657600080fd5b602082029050602081019050919050565b600067ffffffffffffffff82111561149e57600080fd5b602082029050602081019050919050565b6000819050602082019050919050565b6000819050602082019050919050565b6000819050602082019050919050565b6000819050602082019050919050565b6000819050602082019050919050565b600081519050919050565b600081519050919050565b600081519050919050565b600081519050919050565b600081519050919050565b6000602082019050919050565b6000602082019050919050565b6000602082019050919050565b6000602082019050919050565b6000602082019050919050565b600082825260208201905092915050565b600082825260208201905092915050565b600082825260208201905092915050565b600082825260208201905092915050565b600082825260208201905092915050565b600082825260208201905092915050565b60006115e882611612565b9050919050565b60008115159050919050565b6000819050919050565b60008160030b9050919050565b600073ffffffffffffffffffffffffffffffffffffffff82169050919050565b61163b816115dd565b811461164657600080fd5b50565b611652816115fb565b811461165d57600080fd5b5056fea365627a7a723158200af9113a861f83166a69c4fceea4e998e54f3599e09aee85e3cdaef83f101dc66c6578706572696d656e74616cf564736f6c63430005100040",
  "source": "pragma solidity >=0.5.16;\r\npragma experimental ABIEncoderV2;\r\n\r\n\r\ncontract Federation {\r\n    int256 total;\r\n    int256 counter;\r\n    int256[][][][] edges_params; //data structure to hold the edges' parameters\r\n    int256[][][] server_params; // data structure to hold the global parameters\r\n    int32 public constant toFloat = 1E9;\r\n    address[] edges;\r\n\r\n    mapping(address => bool) public participated;\r\n    mapping(address => bool) public edges_mapping;\r\n\r\n    /* Input: an array of edges params for one layer\r\n   Output: the new layer params for the server which is the aggregation of the edges' params\r\n   Remark: The output is to be broadcasted back to the edges after all layers have been processed */\r\n\r\n    function averageLayer() internal returns (int256[][][] memory) {\r\n        uint256 n_clients = edges_params.length;\r\n        uint256 n_layers = edges_params[0].length;\r\n        int256[][][] memory newParams = new int256[][][](uint256(n_layers));\r\n\r\n        for (uint256 i = 0; i < n_layers; i++) {\r\n            uint256 n_neurons = edges_params[0][i].length;\r\n            uint256 n_connections = edges_params[0][i][0].length;\r\n\r\n            newParams[i] = new int256[][](n_neurons);\r\n\r\n            for (uint256 j = 0; j < n_neurons; j++) {\r\n                newParams[i][j] = new int256[](n_connections);\r\n\r\n                for (uint256 k = 0; k < n_connections; k++) {\r\n                    resetCounters();\r\n\r\n                    for (uint256 z = 0; z < n_clients; z++) {\r\n                        calcAverage(edges_params[z][i][j][k]);\r\n                    }\r\n\r\n                    int256 temp_average = getAverage();\r\n                    newParams[i][j][k] = temp_average;\r\n                    emit displayParam(temp_average);\r\n                }\r\n            }\r\n        }\r\n        return newParams;\r\n    }\r\n\r\n    /* Input: an edge parameters' array (for a given layer)\r\n       Output: parameters' array aggregated to the global parameters array\r\n       Remark: helper function to prepare for the aggregation */\r\n\r\n    function store_params(int256[][][] memory _layer_params)\r\n        public\r\n        returns (int256)\r\n    {\r\n        require(\r\n            participated[msg.sender] == false,\r\n            \"Sender already stored parameters.\"\r\n        );\r\n\r\n        if (edges_mapping[msg.sender] == false) {\r\n            edges.push(msg.sender);\r\n            edges_mapping[msg.sender] = true;\r\n        }\r\n\r\n        edges_params.push(_layer_params);\r\n        participated[msg.sender] = true;\r\n\r\n        return 1;\r\n    }\r\n\r\n    function run_agg() public returns (int256[][][] memory) {\r\n        server_params = averageLayer();\r\n        clearEdgesArray();\r\n        resetAccounts();\r\n        return server_params;\r\n    }\r\n\r\n    function calcAverage(int256 _newValue) internal {\r\n        total += _newValue;\r\n        counter++;\r\n    }\r\n\r\n    function getAverage() internal view returns (int256) {\r\n        return (total / counter);\r\n    }\r\n\r\n    function resetCounters() internal {\r\n        counter = 0;\r\n        total = 0;\r\n    }\r\n\r\n    function clearEdgesArray() internal returns (int256) {\r\n        //for (uint i = 0; i <= edges_params.length; i++) {\r\n        //  edges_params.pop();\r\n        //}\r\n        delete edges_params;\r\n        return int256(edges_params.length);\r\n    }\r\n\r\n    function resetAccounts() internal returns (bool) {\r\n        for (uint256 i = 0; i < edges.length; i++) {\r\n            participated[edges[i]] = false;\r\n        }\r\n        return true;\r\n    }\r\n\r\n    function resetState() public returns (bool) {\r\n        clearEdgesArray();\r\n        resetAccounts();\r\n        return true;\r\n    }\r\n\r\n    function read_edges_params() public view returns (int256[][][][] memory) {\r\n        return edges_params;\r\n    }\r\n\r\n    function read_params() public view returns (int256[][][] memory) {\r\n        return server_params;\r\n    }\r\n\r\n    // Event for debugging purposes\r\n\r\n    event displayParam(int256 _param);\r\n\r\n    function displayAccount() public view returns (address) {\r\n        return msg.sender;\r\n    }\r\n}\r\n",
  "sourcePath": "C:\\Users\\Soul\\Downloads\\solidity-fl\\contracts\\Federation.sol",
  "compiler": {
    "name": "solc",
    "version": "0.5.16+commit.9c3226ce.Emscripten.clang"
  },
  "schemaVersion": "3.1.0",
  "updatedAt": "2020-05-14T11:56:42.813Z",
  "devdoc": {
    "methods": {}
  },
  "userdoc": {
    "methods": {}
  }
}