{
  "contractName": "Federation",
  "abi": [
    {
      "anonymous": false,
      "inputs": [
        {
          "indexed": false,
          "internalType": "int256",
          "name": "_param",
          "type": "int256"
        }
      ],
      "name": "displayParam",
      "type": "event"
    },
    {
      "constant": true,
      "inputs": [
        {
          "internalType": "address",
          "name": "",
          "type": "address"
        }
      ],
      "name": "edges_mapping",
      "outputs": [
        {
          "internalType": "bool",
          "name": "",
          "type": "bool"
        }
      ],
      "payable": false,
      "stateMutability": "view",
      "type": "function"
    },
    {
      "constant": true,
      "inputs": [
        {
          "internalType": "address",
          "name": "",
          "type": "address"
        }
      ],
      "name": "participated",
      "outputs": [
        {
          "internalType": "bool",
          "name": "",
          "type": "bool"
        }
      ],
      "payable": false,
      "stateMutability": "view",
      "type": "function"
    },
    {
      "constant": true,
      "inputs": [],
      "name": "toFloat",
      "outputs": [
        {
          "internalType": "int32",
          "name": "",
          "type": "int32"
        }
      ],
      "payable": false,
      "stateMutability": "view",
      "type": "function"
    },
    {
      "constant": false,
      "inputs": [
        {
          "internalType": "int256[][][]",
          "name": "_layer_params",
          "type": "int256[][][]"
        }
      ],
      "name": "store_params",
      "outputs": [
        {
          "internalType": "int256",
          "name": "",
          "type": "int256"
        }
      ],
      "payable": false,
      "stateMutability": "nonpayable",
      "type": "function"
    },
    {
      "constant": false,
      "inputs": [],
      "name": "run_agg",
      "outputs": [
        {
          "internalType": "int256[][][]",
          "name": "",
          "type": "int256[][][]"
        }
      ],
      "payable": false,
      "stateMutability": "nonpayable",
      "type": "function"
    },
    {
      "constant": false,
      "inputs": [],
      "name": "resetState",
      "outputs": [
        {
          "internalType": "bool",
          "name": "",
          "type": "bool"
        }
      ],
      "payable": false,
      "stateMutability": "nonpayable",
      "type": "function"
    },
    {
      "constant": true,
      "inputs": [],
      "name": "read_edges_params",
      "outputs": [
        {
          "internalType": "int256[][][][]",
          "name": "",
          "type": "int256[][][][]"
        }
      ],
      "payable": false,
      "stateMutability": "view",
      "type": "function"
    },
    {
      "constant": true,
      "inputs": [],
      "name": "read_params",
      "outputs": [
        {
          "internalType": "int256[][][]",
          "name": "",
          "type": "int256[][][]"
        }
      ],
      "payable": false,
      "stateMutability": "view",
      "type": "function"
    },
    {
      "constant": true,
      "inputs": [],
      "name": "displayAccount",
      "outputs": [
        {
          "internalType": "address",
          "name": "",
          "type": "address"
        }
      ],
      "payable": false,
      "stateMutability": "view",
      "type": "function"
    }
  ],
  "bytecode": "0x608060405234801561001057600080fd5b506116ac806100206000396000f3fe608060405234801561001057600080fd5b50600436106100935760003560e01c8063813c16dc11610066578063813c16dc14610122578063b3bd870a14610140578063d4223fbe14610170578063e8129416146101a0578063f9e19fa5146101be57610093565b80631b72bc75146100985780633413bb74146100b65780634a5c0310146100d45780635172adb8146100f2575b600080fd5b6100a06101dc565b6040516100ad91906113d8565b60405180910390f35b6100be6101e4565b6040516100cb9190611380565b60405180910390f35b6100dc6102fa565b6040516100e9919061135e565b60405180910390f35b61010c60048036036101079190810190610fa2565b610427565b60405161011991906113a2565b60405180910390f35b61012a610447565b6040516101379190611343565b60405180910390f35b61015a60048036036101559190810190610fa2565b61044f565b60405161016791906113a2565b60405180910390f35b61018a60048036036101859190810190610fcb565b61046f565b60405161019791906113bd565b60405180910390f35b6101a86106bb565b6040516101b59190611380565b60405180910390f35b6101c66107a1565b6040516101d391906113a2565b60405180910390f35b633b9aca0081565b60606101ee6107bc565b60039080519060200190610203929190610bd3565b5061020c610aac565b50610215610ac7565b506003805480602002602001604051908101604052809291908181526020016000905b828210156102f157838290600052602060002001805480602002602001604051908101604052809291908181526020016000905b828210156102de578382906000526020600020018054806020026020016040519081016040528092919081815260200182805480156102ca57602002820191906000526020600020905b8154815260200190600101908083116102b6575b50505050508152602001906001019061026c565b5050505081526020019060010190610238565b50505050905090565b60606002805480602002602001604051908101604052809291908181526020016000905b8282101561041e57838290600052602060002001805480602002602001604051908101604052809291908181526020016000905b8282101561040b57838290600052602060002001805480602002602001604051908101604052809291908181526020016000905b828210156103f8578382906000526020600020018054806020026020016040519081016040528092919081815260200182805480156103e457602002820191906000526020600020905b8154815260200190600101908083116103d0575b505050505081526020019060010190610386565b5050505081526020019060010190610352565b505050508152602001906001019061031e565b50505050905090565b60066020528060005260406000206000915054906101000a900460ff1681565b600033905090565b60056020528060005260406000206000915054906101000a900460ff1681565b6000801515600560003373ffffffffffffffffffffffffffffffffffffffff1673ffffffffffffffffffffffffffffffffffffffff16815260200190815260200160002060009054906101000a900460ff16151514610503576040517f08c379a00000000000000000000000000000000000000000000000000000000081526004016104fa906113f3565b60405180910390fd5b60001515600660003373ffffffffffffffffffffffffffffffffffffffff1673ffffffffffffffffffffffffffffffffffffffff16815260200190815260200160002060009054906101000a900460ff161515141561061b5760043390806001815401808255809150509060018203906000526020600020016000909192909190916101000a81548173ffffffffffffffffffffffffffffffffffffffff021916908373ffffffffffffffffffffffffffffffffffffffff160217905550506001600660003373ffffffffffffffffffffffffffffffffffffffff1673ffffffffffffffffffffffffffffffffffffffff16815260200190815260200160002060006101000a81548160ff0219169083151502179055505b6002829080600181540180825580915050906001820390600052602060002001600090919290919091509080519060200190610658929190610bd3565b50506001600560003373ffffffffffffffffffffffffffffffffffffffff1673ffffffffffffffffffffffffffffffffffffffff16815260200190815260200160002060006101000a81548160ff02191690831515021790555060019050919050565b60606003805480602002602001604051908101604052809291908181526020016000905b8282101561079857838290600052602060002001805480602002602001604051908101604052809291908181526020016000905b828210156107855783829060005260206000200180548060200260200160405190810160405280929190818152602001828054801561077157602002820191906000526020600020905b81548152602001906001019080831161075d575b505050505081526020019060010190610713565b50505050815260200190600101906106df565b50505050905090565b60006107ab610aac565b506107b4610ac7565b506001905090565b606060006002805490509050600060026000815481106107d857fe5b9060005260206000200180549050905060608160405190808252806020026020018201604052801561081e57816020015b60608152602001906001900390816108095790505b50905060008090505b82811015610aa2576000600260008154811061083f57fe5b90600052602060002001828154811061085457fe5b906000526020600020018054905090506000600260008154811061087457fe5b90600052602060002001838154811061088957fe5b9060005260206000200160008154811061089f57fe5b90600052602060002001805490509050816040519080825280602002602001820160405280156108e357816020015b60608152602001906001900390816108ce5790505b508484815181106108f057fe5b602002602001018190525060008090505b82811015610a9257816040519080825280602002602001820160405280156109385781602001602082028038833980820191505090505b5085858151811061094557fe5b6020026020010151828151811061095857fe5b602002602001018190525060008090505b82811015610a8457610979610b80565b60008090505b888110156109f3576109e66002828154811061099757fe5b9060005260206000200187815481106109ac57fe5b9060005260206000200184815481106109c157fe5b9060005260206000200183815481106109d657fe5b9060005260206000200154610b91565b808060010191505061097f565b5060006109fe610bb5565b905080878781518110610a0d57fe5b60200260200101518481518110610a2057fe5b60200260200101518381518110610a3357fe5b6020026020010181815250507ffbf019d652fe03a2e20ee2826048fddeb738ab2cd27a73bb568e235e7d75d34681604051610a6e91906113bd565b60405180910390a1508080600101915050610969565b508080600101915050610901565b5050508080600101915050610827565b5080935050505090565b600060026000610abc9190610c33565b600280549050905090565b600080600090505b600480549050811015610b785760006005600060048481548110610aef57fe5b9060005260206000200160009054906101000a900473ffffffffffffffffffffffffffffffffffffffff1673ffffffffffffffffffffffffffffffffffffffff1673ffffffffffffffffffffffffffffffffffffffff16815260200190815260200160002060006101000a81548160ff0219169083151502179055508080600101915050610acf565b506001905090565b600060018190555060008081905550565b80600080828254019250508190555060016000815480929190600101919050555050565b6000600154633b9aca0060030b6000540281610bcd57fe5b05905090565b828054828255906000526020600020908101928215610c22579160200282015b82811115610c21578251829080519060200190610c11929190610c54565b5091602001919060010190610bf3565b5b509050610c2f9190610cb4565b5090565b5080546000825590600052602060002090810190610c519190610ce0565b50565b828054828255906000526020600020908101928215610ca3579160200282015b82811115610ca2578251829080519060200190610c92929190610d0c565b5091602001919060010190610c74565b5b509050610cb09190610d59565b5090565b610cdd91905b80821115610cd95760008181610cd09190610d85565b50600101610cba565b5090565b90565b610d0991905b80821115610d055760008181610cfc9190610da6565b50600101610ce6565b5090565b90565b828054828255906000526020600020908101928215610d48579160200282015b82811115610d47578251825591602001919060010190610d2c565b5b509050610d559190610dc7565b5090565b610d8291905b80821115610d7e5760008181610d759190610dec565b50600101610d5f565b5090565b90565b5080546000825590600052602060002090810190610da39190610d59565b50565b5080546000825590600052602060002090810190610dc49190610cb4565b50565b610de991905b80821115610de5576000816000905550600101610dcd565b5090565b90565b5080546000825590600052602060002090810190610e0a9190610dc7565b50565b600081359050610e1c8161163b565b92915050565b600082601f830112610e3357600080fd5b8135610e46610e4182611440565b611413565b9150818183526020840193506020810190508360005b83811015610e8c5781358601610e728882610e96565b845260208401935060208301925050600181019050610e5c565b5050505092915050565b600082601f830112610ea757600080fd5b8135610eba610eb582611468565b611413565b9150818183526020840193506020810190508360005b83811015610f005781358601610ee68882610f0a565b845260208401935060208301925050600181019050610ed0565b5050505092915050565b600082601f830112610f1b57600080fd5b8135610f2e610f2982611490565b611413565b91508181835260208401935060208101905083856020840282011115610f5357600080fd5b60005b83811015610f835781610f698882610f8d565b845260208401935060208301925050600181019050610f56565b5050505092915050565b600081359050610f9c81611652565b92915050565b600060208284031215610fb457600080fd5b6000610fc284828501610e0d565b91505092915050565b600060208284031215610fdd57600080fd5b600082013567ffffffffffffffff811115610ff757600080fd5b61100384828501610e22565b91505092915050565b60006110188383611159565b905092915050565b600061102c83836111ce565b905092915050565b60006110408383611243565b905092915050565b600061105483836112b0565b60208301905092915050565b611069816115e6565b82525050565b600061107a82611508565b6110848185611580565b935083602082028501611096856114b8565b8060005b858110156110d257848403895281516110b3858261100c565b94506110be8361153f565b925060208a0199505060018101905061109a565b50829750879550505050505092915050565b60006110ef8261151e565b6110f981856115a2565b93508360208202850161110b856114d8565b8060005b8581101561114757848403895281516111288582611020565b945061113383611559565b925060208a0199505060018101905061110f565b50829750879550505050505092915050565b600061116482611513565b61116e8185611591565b935083602082028501611180856114c8565b8060005b858110156111bc578484038952815161119d8582611020565b94506111a88361154c565b925060208a01995050600181019050611184565b50829750879550505050505092915050565b60006111d982611529565b6111e381856115b3565b9350836020820285016111f5856114e8565b8060005b8581101561123157848403895281516112128582611034565b945061121d83611566565b925060208a019950506001810190506111f9565b50829750879550505050505092915050565b600061124e82611534565b61125881856115c4565b9350611263836114f8565b8060005b8381101561129457815161127b8882611048565b975061128683611573565b925050600181019050611267565b5085935050505092915050565b6112aa816115f8565b82525050565b6112b981611604565b82525050565b6112c881611604565b82525050565b6112d78161160e565b82525050565b60006112ea6021836115d5565b91507f53656e64657220616c72656164792073746f72656420706172616d657465727360008301527f2e000000000000000000000000000000000000000000000000000000000000006020830152604082019050919050565b60006020820190506113586000830184611060565b92915050565b60006020820190508181036000830152611378818461106f565b905092915050565b6000602082019050818103600083015261139a81846110e4565b905092915050565b60006020820190506113b760008301846112a1565b92915050565b60006020820190506113d260008301846112bf565b92915050565b60006020820190506113ed60008301846112ce565b92915050565b6000602082019050818103600083015261140c816112dd565b9050919050565b6000604051905081810181811067ffffffffffffffff8211171561143657600080fd5b8060405250919050565b600067ffffffffffffffff82111561145757600080fd5b602082029050602081019050919050565b600067ffffffffffffffff82111561147f57600080fd5b602082029050602081019050919050565b600067ffffffffffffffff8211156114a757600080fd5b602082029050602081019050919050565b6000819050602082019050919050565b6000819050602082019050919050565b6000819050602082019050919050565b6000819050602082019050919050565b6000819050602082019050919050565b600081519050919050565b600081519050919050565b600081519050919050565b600081519050919050565b600081519050919050565b6000602082019050919050565b6000602082019050919050565b6000602082019050919050565b6000602082019050919050565b6000602082019050919050565b600082825260208201905092915050565b600082825260208201905092915050565b600082825260208201905092915050565b600082825260208201905092915050565b600082825260208201905092915050565b600082825260208201905092915050565b60006115f18261161b565b9050919050565b60008115159050919050565b6000819050919050565b60008160030b9050919050565b600073ffffffffffffffffffffffffffffffffffffffff82169050919050565b611644816115e6565b811461164f57600080fd5b50565b61165b81611604565b811461166657600080fd5b5056fea365627a7a723158209f5b5ece041959c0c0efffac5cf734fd51742796660ecb933a60e31789950d2e6c6578706572696d656e74616cf564736f6c63430005100040",
  "source": "pragma solidity >=0.5.16;\npragma experimental ABIEncoderV2;\n\n\ncontract Federation {\n    int256 total;\n    int256 counter;\n    int256[][][][] edges_params; //data structure to hold the edges' parameters\n    int256[][][] server_params; // data structure to hold the global parameters\n    int32 public constant toFloat = 1E9;\n    address[] edges;\n\n    mapping(address => bool) public participated;\n    mapping(address => bool) public edges_mapping;\n\n    /* Input: an array of edges params for one layer\n   Output: the new layer params for the server which is the aggregation of the edges' params\n   Remark: The output is to be broadcasted back to the edges after all layers have been processed */\n\n    function averageLayer() internal returns (int256[][][] memory) {\n        uint256 n_clients = edges_params.length;\n        uint256 n_layers = edges_params[0].length;\n        int256[][][] memory newParams = new int256[][][](uint256(n_layers));\n\n        for (uint256 i = 0; i < n_layers; i++) {\n            uint256 n_neurons = edges_params[0][i].length;\n            uint256 n_connections = edges_params[0][i][0].length;\n\n            newParams[i] = new int256[][](n_neurons);\n\n            for (uint256 j = 0; j < n_neurons; j++) {\n                newParams[i][j] = new int256[](n_connections);\n\n                for (uint256 k = 0; k < n_connections; k++) {\n                    resetCounters();\n\n                    for (uint256 z = 0; z < n_clients; z++) {\n                        calcAverage(edges_params[z][i][j][k]);\n                    }\n\n                    int256 temp_average = getAverage();\n                    newParams[i][j][k] = temp_average;\n                    emit displayParam(temp_average);\n                }\n            }\n        }\n        return newParams;\n    }\n\n    /* Input: an edge parameters' array (for a given layer)\n       Output: parameters' array aggregated to the global parameters array\n       Remark: helper function to prepare for the aggregation */\n\n    function store_params(int256[][][] memory _layer_params)\n        public\n        returns (int256)\n    {\n        require(\n            participated[msg.sender] == false,\n            \"Sender already stored parameters.\"\n        );\n\n        if (edges_mapping[msg.sender] == false) {\n            edges.push(msg.sender);\n            edges_mapping[msg.sender] = true;\n        }\n\n        edges_params.push(_layer_params);\n        participated[msg.sender] = true;\n\n        return 1;\n    }\n\n    function run_agg() public returns (int256[][][] memory) {\n        server_params = averageLayer();\n        clearEdgesArray();\n        resetAccounts();\n        return server_params;\n    }\n\n    function calcAverage(int256 _newValue) internal {\n        total += _newValue;\n        counter++;\n    }\n\n    function getAverage() internal view returns (int256) {\n        return ((total * toFloat) / counter);\n    }\n\n    function resetCounters() internal {\n        counter = 0;\n        total = 0;\n    }\n\n    function clearEdgesArray() internal returns (int256) {\n        //for (uint i = 0; i <= edges_params.length; i++) {\n        //  edges_params.pop();\n        //}\n        delete edges_params;\n        return int256(edges_params.length);\n    }\n\n    function resetAccounts() internal returns (bool) {\n        for (uint256 i = 0; i < edges.length; i++) {\n            participated[edges[i]] = false;\n        }\n        return true;\n    }\n\n    function resetState() public returns (bool) {\n        clearEdgesArray();\n        resetAccounts();\n        return true;\n    }\n\n    function read_edges_params() public view returns (int256[][][][] memory) {\n        return edges_params;\n    }\n\n    function read_params() public view returns (int256[][][] memory) {\n        return server_params;\n    }\n\n    // Event for debugging purposes\n\n    event displayParam(int256 _param);\n\n    function displayAccount() public view returns (address) {\n        return msg.sender;\n    }\n}\n",
  "sourcePath": "/Users/omar_rifai/workspace/truffle/contracts/Federation.sol",
  "compiler": {
    "name": "solc",
    "version": "0.5.16+commit.9c3226ce.Emscripten.clang"
  },
  "schemaVersion": "3.0.23",
  "updatedAt": "2020-04-29T14:40:32.995Z",
  "networkType": "ethereum",
  "devdoc": {
    "methods": {}
  },
  "userdoc": {
    "methods": {}
  }
}